Event: Created session
Event: Created session
Event: Connecting to app.fixsim.com on port 15000 (Source :0)Event: Connecting to app.fixsim.com on port 15000 (Source :0)

Outgoing: 8=FIX.4.4|9=94|35=A|34=1|49=pedroserrano2@gmail_com|52=20240625-23:48:09.000|56=FIXSIMDEMO|98=0|108=30|141=Y|10=082|
Event: Initiated logon request
Outgoing: 8=FIX.4.4|9=76|35=A|34=1|49=FIXSELL2|52=20240625-23:48:09.000|56=FIXBUY2|98=0|108=30|141=Y|10=129|
Event: Initiated logon request
Event: Socket Error: Connection reset by peer.
Event: Disconnecting
Event: Socket Error: Connection reset by peer.
Event: Disconnecting
Event: Connecting to app.fixsim.com on port 15000 (Source :0)Event: Connecting to app.fixsim.com on port 15000 (Source :0)

Outgoing: 8=FIX.4.4|9=94|35=A|34=1|49=pedroserrano2@gmail_com|52=20240625-23:48:12.000|56=FIXSIMDEMO|98=0|108=30|141=Y|10=076|
Event: Initiated logon request
Outgoing: 8=FIX.4.4|9=76|35=A|34=1|49=FIXSELL2|52=20240625-23:48:12.000|56=FIXBUY2|98=0|108=30|141=Y|10=123|
Event: Initiated logon request
Event: Socket Error: Connection reset by peer.
Event: Disconnecting
Event: Socket Error: Connection reset by peer.
Event: Disconnecting
Event: Connecting to app.fixsim.com on port 15000 (Source :0)Event: Connecting to app.fixsim.com on port 15000 (Source :0)

Outgoing: 8=FIX.4.4|9=76|35=A|34=1|49=FIXSELL2|52=20240625-23:48:14.000|56=FIXBUY2|98=0|108=30|141=Y|10=125|
Event: Initiated logon request
Outgoing: 8=FIX.4.4|9=94|35=A|34=1|49=pedroserrano2@gmail_com|52=20240625-23:48:14.000|56=FIXSIMDEMO|98=0|108=30|141=Y|10=078|
Event: Initiated logon request
Event: Socket Error: Connection reset by peer.Event: Socket Error: Connection reset by peer.

Event: Disconnecting
Event: Disconnecting
Event: Connecting to app.fixsim.com on port 15000 (Source :0)Event: Connecting to app.fixsim.com on port 15000 (Source :0)

Outgoing: 8=FIX.4.4|9=94|35=A|34=1|49=pedroserrano2@gmail_com|52=20240625-23:48:15.000|56=FIXSIMDEMO|98=0|108=30|141=Y|10=079|
Event: Initiated logon request
Outgoing: 8=FIX.4.4|9=76|35=A|34=1|49=FIXSELL2|52=20240625-23:48:15.000|56=FIXBUY2|98=0|108=30|141=Y|10=126|
Event: Initiated logon request
Event: Socket Error: Connection reset by peer.
Event: Disconnecting
Event: Socket Error: Connection reset by peer.
Event: Disconnecting
Event: Connecting to app.fixsim.com on port 15000 (Source :0)Event: Connecting to app.fixsim.com on port 15000 (Source :0)

Outgoing: 8=FIX.4.4|9=94|35=A|34=1|49=pedroserrano2@gmail_com|52=20240625-23:48:17.000|56=FIXSIMDEMO|98=0|108=30|141=Y|10=081|
Event: Initiated logon request
Outgoing: 8=FIX.4.4|9=76|35=A|34=1|49=FIXSELL2|52=20240625-23:48:17.000|56=FIXBUY2|98=0|108=30|141=Y|10=128|
Event: Initiated logon request
Event: Socket Error: Connection reset by peer.Event: Socket Error: Connection reset by peer.

Event: DisconnectingEvent: Disconnecting

Event: Connecting to app.fixsim.com on port 15000 (Source :0)Event: Connecting to app.fixsim.com on port 15000 (Source :0)

Outgoing: 8=FIX.4.4|9=76|35=A|34=1|49=FIXSELL2|52=20240625-23:48:19.000|56=FIXBUY2|98=0|108=30|141=Y|10=130|
Event: Initiated logon request
Outgoing: 8=FIX.4.4|9=94|35=A|34=1|49=pedroserrano2@gmail_com|52=20240625-23:48:19.000|56=FIXSIMDEMO|98=0|108=30|141=Y|10=083|
Event: Initiated logon request
Event: Socket Error: Connection reset by peer.Event: Socket Error: Connection reset by peer.

Event: DisconnectingEvent: Disconnecting

Event: Connecting to app.fixsim.com on port 15000 (Source :0)Event: Connecting to app.fixsim.com on port 15000 (Source :0)

Outgoing: 8=FIX.4.4|9=76|35=A|34=1|49=FIXSELL2|52=20240625-23:48:21.000|56=FIXBUY2|98=0|108=30|141=Y|10=123|
Event: Initiated logon request
Outgoing: 8=FIX.4.4|9=94|35=A|34=1|49=pedroserrano2@gmail_com|52=20240625-23:48:21.000|56=FIXSIMDEMO|98=0|108=30|141=Y|10=076|
Event: Initiated logon request
Event: Socket Error: Connection reset by peer.
Event: Disconnecting
Event: Socket Error: Connection reset by peer.
Event: Disconnecting
Event: Connecting to app.fixsim.com on port 15000 (Source :0)Event: Connecting to app.fixsim.com on port 15000 (Source :0)

Outgoing: 8=FIX.4.4|9=76|35=A|34=1|49=FIXSELL2|52=20240625-23:48:23.000|56=FIXBUY2|98=0|108=30|141=Y|10=125|
Event: Initiated logon request
Outgoing: 8=FIX.4.4|9=94|35=A|34=1|49=pedroserrano2@gmail_com|52=20240625-23:48:23.000|56=FIXSIMDEMO|98=0|108=30|141=Y|10=078|
Event: Initiated logon request
Event: Socket Error: Connection reset by peer.
Event: Disconnecting
Event: Socket Error: Connection reset by peer.
Event: Disconnecting
Event: Connecting to app.fixsim.com on port 15000 (Source :0)Event: Connecting to app.fixsim.com on port 15000 (Source :0)

Outgoing: 8=FIX.4.4|9=94|35=A|34=1|49=pedroserrano2@gmail_com|52=20240625-23:48:25.000|56=FIXSIMDEMO|98=0|108=30|141=Y|10=080|
Event: Initiated logon request
Outgoing: 8=FIX.4.4|9=76|35=A|34=1|49=FIXSELL2|52=20240625-23:48:25.000|56=FIXBUY2|98=0|108=30|141=Y|10=127|
Event: Initiated logon request
Event: Socket Error: Connection reset by peer.Event: Socket Error: Connection reset by peer.

Event: DisconnectingEvent: Disconnecting

Event: Connecting to app.fixsim.com on port 15000 (Source :0)Event: Connecting to app.fixsim.com on port 15000 (Source :0)

Outgoing: 8=FIX.4.4|9=76|35=A|34=1|49=FIXSELL2|52=20240625-23:48:27.000|56=FIXBUY2|98=0|108=30|141=Y|10=129|
Outgoing: 8=FIX.4.4|9=94|35=A|34=1|49=pedroserrano2@gmail_com|52=20240625-23:48:27.000|56=FIXSIMDEMO|98=0|108=30|141=Y|10=082|
Event: Initiated logon request
Event: Initiated logon request
Event: Socket Error: Connection reset by peer.Event: Socket Error: Connection reset by peer.

Event: Disconnecting
Event: Disconnecting
Event: Connecting to app.fixsim.com on port 15000 (Source :0)Event: Connecting to app.fixsim.com on port 15000 (Source :0)

Outgoing: 8=FIX.4.4|9=94|35=A|34=1|49=pedroserrano2@gmail_com|52=20240625-23:48:29.000|56=FIXSIMDEMO|98=0|108=30|141=Y|10=084|
Outgoing: 8=FIX.4.4|9=76|35=A|34=1|49=FIXSELL2|52=20240625-23:48:29.000|56=FIXBUY2|98=0|108=30|141=Y|10=131|
Event: Initiated logon request
Event: Initiated logon request
Event: Socket Error: Connection reset by peer.
Event: Disconnecting
Event: Socket Error: Connection reset by peer.
Event: Disconnecting
Event: Connecting to app.fixsim.com on port 15000 (Source :0)Event: Connecting to app.fixsim.com on port 15000 (Source :0)

Outgoing: 8=FIX.4.4|9=94|35=A|34=1|49=pedroserrano2@gmail_com|52=20240625-23:48:31.000|56=FIXSIMDEMO|98=0|108=30|141=Y|10=077|
Outgoing: 8=FIX.4.4|9=76|35=A|34=1|49=FIXSELL2|52=20240625-23:48:31.000|56=FIXBUY2|98=0|108=30|141=Y|10=124|
Event: Initiated logon request
Event: Initiated logon request
Event: Socket Error: Connection reset by peer.Event: Socket Error: Connection reset by peer.

Event: Disconnecting
Event: Disconnecting
Event: Connecting to app.fixsim.com on port 15000 (Source :0)Event: Connecting to app.fixsim.com on port 15000 (Source :0)

Outgoing: 8=FIX.4.4|9=94|35=A|34=1|49=pedroserrano2@gmail_com|52=20240625-23:48:33.000|56=FIXSIMDEMO|98=0|108=30|141=Y|10=079|
Event: Initiated logon request
Outgoing: 8=FIX.4.4|9=76|35=A|34=1|49=FIXSELL2|52=20240625-23:48:33.000|56=FIXBUY2|98=0|108=30|141=Y|10=126|
Event: Initiated logon request
Event: Socket Error: Connection reset by peer.Event: Socket Error: Connection reset by peer.

Event: DisconnectingEvent: Disconnecting

Event: Connecting to app.fixsim.com on port 15000 (Source :0)
Outgoing: 8=FIX.4.4|9=94|35=A|34=1|49=pedroserrano2@gmail_com|52=20240625-23:48:35.000|56=FIXSIMDEMO|98=0|108=30|141=Y|10=081|
Event: Initiated logon request
Event: Socket Error: Connection reset by peer.
Event: Disconnecting
Event: Connecting to app.fixsim.com on port 15000 (Source :0)
Outgoing: 8=FIX.4.4|9=94|35=A|34=1|49=pedroserrano2@gmail_com|52=20240625-23:48:37.000|56=FIXSIMDEMO|98=0|108=30|141=Y|10=083|
Event: Initiated logon request
Event: Socket Error: Connection reset by peer.
Event: Disconnecting
Event: Connecting to app.fixsim.com on port 15000 (Source :0)
Outgoing: 8=FIX.4.4|9=94|35=A|34=1|49=pedroserrano2@gmail_com|52=20240625-23:48:39.000|56=FIXSIMDEMO|98=0|108=30|141=Y|10=085|
Event: Initiated logon request
Event: Socket Error: Connection reset by peer.
Event: Disconnecting
