Created session
Connecting to app.fixsim.com on port 15000 (Source :0)
8=FIX.4.4|9=94|35=A|34=1|49=pedroserrano2@gmail_com|52=20240625-22:39:44.000|56=FIXSIMDEMO|98=0|108=30|141=Y|10=080|
Initiated logon request
8=FIX.4.4|9=88|35=A|34=1|49=FIXSIMDEMO|52=20240625-22:38:20.483|56=pedroserrano2@gmail_com|98=0|108=30|10=046|
Received logon response
8=FIX.4.4|9=76|35=0|34=2|49=pedroserrano2@gmail_com|52=20240625-22:40:14.000|56=FIXSIMDEMO|10=239|
8=FIX.4.4|9=76|35=0|34=2|49=FIXSIMDEMO|52=20240625-22:38:50.575|56=pedroserrano2@gmail_com|10=007|
8=FIX.4.4|9=76|35=0|34=3|49=pedroserrano2@gmail_com|52=20240625-22:40:44.000|56=FIXSIMDEMO|10=243|
8=FIX.4.4|9=76|35=0|34=3|49=FIXSIMDEMO|52=20240625-22:39:20.886|56=pedroserrano2@gmail_com|10=011|
Initiated logout request
8=FIX.4.4|9=76|35=5|34=4|49=pedroserrano2@gmail_com|52=20240625-22:40:55.000|56=FIXSIMDEMO|10=251|
8=FIX.4.4|9=76|35=5|34=4|49=FIXSIMDEMO|52=20240625-22:39:30.963|56=pedroserrano2@gmail_com|10=014|
Received logout response
Disconnecting
Created session
Connecting to app.fixsim.com on port 15000 (Source :0)
8=FIX.4.4|9=94|35=A|34=1|49=pedroserrano2@gmail_com|52=20240625-23:30:44.000|56=FIXSIMDEMO|98=0|108=30|141=Y|10=072|
Initiated logon request
Socket Error: Connection reset by peer.
Disconnecting
Connecting to app.fixsim.com on port 15000 (Source :0)
8=FIX.4.4|9=94|35=A|34=1|49=pedroserrano2@gmail_com|52=20240625-23:30:47.000|56=FIXSIMDEMO|98=0|108=30|141=Y|10=075|
Initiated logon request
Socket Error: Connection reset by peer.
Disconnecting
Connecting to app.fixsim.com on port 15000 (Source :0)
8=FIX.4.4|9=94|35=A|34=1|49=pedroserrano2@gmail_com|52=20240625-23:30:49.000|56=FIXSIMDEMO|98=0|108=30|141=Y|10=077|
Initiated logon request
Socket Error: Connection reset by peer.
Disconnecting
Connecting to app.fixsim.com on port 15000 (Source :0)
8=FIX.4.4|9=94|35=A|34=1|49=pedroserrano2@gmail_com|52=20240625-23:30:50.000|56=FIXSIMDEMO|98=0|108=30|141=Y|10=069|
Initiated logon request
Socket Error: Connection reset by peer.
Disconnecting
Connecting to app.fixsim.com on port 15000 (Source :0)
8=FIX.4.4|9=94|35=A|34=1|49=pedroserrano2@gmail_com|52=20240625-23:30:52.000|56=FIXSIMDEMO|98=0|108=30|141=Y|10=071|
Initiated logon request
Socket Error: Connection reset by peer.
Disconnecting
Connecting to app.fixsim.com on port 15000 (Source :0)
8=FIX.4.4|9=94|35=A|34=1|49=pedroserrano2@gmail_com|52=20240625-23:30:54.000|56=FIXSIMDEMO|98=0|108=30|141=Y|10=073|
Initiated logon request
Socket Error: Connection reset by peer.
Disconnecting
Connecting to app.fixsim.com on port 15000 (Source :0)
8=FIX.4.4|9=94|35=A|34=1|49=pedroserrano2@gmail_com|52=20240625-23:30:56.000|56=FIXSIMDEMO|98=0|108=30|141=Y|10=075|
Initiated logon request
Created session
Connecting to app.fixsim.com on port 15000 (Source :0)
8=FIX.4.4|9=94|35=A|34=1|49=pedroserrano2@gmail_com|52=20240625-23:31:53.000|56=FIXSIMDEMO|98=0|108=30|141=Y|10=073|
Initiated logon request
Socket Error: Connection reset by peer.
Disconnecting
Connecting to app.fixsim.com on port 15000 (Source :0)
8=FIX.4.4|9=94|35=A|34=1|49=pedroserrano2@gmail_com|52=20240625-23:31:55.000|56=FIXSIMDEMO|98=0|108=30|141=Y|10=075|
Initiated logon request
Socket Error: Connection reset by peer.
Disconnecting
Connecting to app.fixsim.com on port 15000 (Source :0)
8=FIX.4.4|9=94|35=A|34=1|49=pedroserrano2@gmail_com|52=20240625-23:31:57.000|56=FIXSIMDEMO|98=0|108=30|141=Y|10=077|
Initiated logon request
Socket Error: Connection reset by peer.
Disconnecting
Connecting to app.fixsim.com on port 15000 (Source :0)
8=FIX.4.4|9=94|35=A|34=1|49=pedroserrano2@gmail_com|52=20240625-23:31:59.000|56=FIXSIMDEMO|98=0|108=30|141=Y|10=079|
Initiated logon request
Socket Error: Connection reset by peer.
Disconnecting
