8=FIX.4.4|9=94|35=A|34=1|49=pedroserrano2@gmail_com|52=20240625-23:48:09.000|56=FIXSIMDEMO|98=0|108=30|141=Y|10=082|
8=FIX.4.4|9=76|35=A|34=1|49=FIXSELL2|52=20240625-23:48:09.000|56=FIXBUY2|98=0|108=30|141=Y|10=129|
8=FIX.4.4|9=94|35=A|34=1|49=pedroserrano2@gmail_com|52=20240625-23:48:12.000|56=FIXSIMDEMO|98=0|108=30|141=Y|10=076|
8=FIX.4.4|9=76|35=A|34=1|49=FIXSELL2|52=20240625-23:48:12.000|56=FIXBUY2|98=0|108=30|141=Y|10=123|
8=FIX.4.4|9=76|35=A|34=1|49=FIXSELL2|52=20240625-23:48:14.000|56=FIXBUY2|98=0|108=30|141=Y|10=125|
8=FIX.4.4|9=94|35=A|34=1|49=pedroserrano2@gmail_com|52=20240625-23:48:14.000|56=FIXSIMDEMO|98=0|108=30|141=Y|10=078|
8=FIX.4.4|9=94|35=A|34=1|49=pedroserrano2@gmail_com|52=20240625-23:48:15.000|56=FIXSIMDEMO|98=0|108=30|141=Y|10=079|
8=FIX.4.4|9=76|35=A|34=1|49=FIXSELL2|52=20240625-23:48:15.000|56=FIXBUY2|98=0|108=30|141=Y|10=126|
8=FIX.4.4|9=94|35=A|34=1|49=pedroserrano2@gmail_com|52=20240625-23:48:17.000|56=FIXSIMDEMO|98=0|108=30|141=Y|10=081|
8=FIX.4.4|9=76|35=A|34=1|49=FIXSELL2|52=20240625-23:48:17.000|56=FIXBUY2|98=0|108=30|141=Y|10=128|
8=FIX.4.4|9=76|35=A|34=1|49=FIXSELL2|52=20240625-23:48:19.000|56=FIXBUY2|98=0|108=30|141=Y|10=130|
8=FIX.4.4|9=94|35=A|34=1|49=pedroserrano2@gmail_com|52=20240625-23:48:19.000|56=FIXSIMDEMO|98=0|108=30|141=Y|10=083|
8=FIX.4.4|9=76|35=A|34=1|49=FIXSELL2|52=20240625-23:48:21.000|56=FIXBUY2|98=0|108=30|141=Y|10=123|
8=FIX.4.4|9=94|35=A|34=1|49=pedroserrano2@gmail_com|52=20240625-23:48:21.000|56=FIXSIMDEMO|98=0|108=30|141=Y|10=076|
8=FIX.4.4|9=76|35=A|34=1|49=FIXSELL2|52=20240625-23:48:23.000|56=FIXBUY2|98=0|108=30|141=Y|10=125|
8=FIX.4.4|9=94|35=A|34=1|49=pedroserrano2@gmail_com|52=20240625-23:48:23.000|56=FIXSIMDEMO|98=0|108=30|141=Y|10=078|
8=FIX.4.4|9=94|35=A|34=1|49=pedroserrano2@gmail_com|52=20240625-23:48:25.000|56=FIXSIMDEMO|98=0|108=30|141=Y|10=080|
8=FIX.4.4|9=76|35=A|34=1|49=FIXSELL2|52=20240625-23:48:25.000|56=FIXBUY2|98=0|108=30|141=Y|10=127|
8=FIX.4.4|9=76|35=A|34=1|49=FIXSELL2|52=20240625-23:48:27.000|56=FIXBUY2|98=0|108=30|141=Y|10=129|
8=FIX.4.4|9=94|35=A|34=1|49=pedroserrano2@gmail_com|52=20240625-23:48:27.000|56=FIXSIMDEMO|98=0|108=30|141=Y|10=082|
8=FIX.4.4|9=94|35=A|34=1|49=pedroserrano2@gmail_com|52=20240625-23:48:29.000|56=FIXSIMDEMO|98=0|108=30|141=Y|10=084|
8=FIX.4.4|9=76|35=A|34=1|49=FIXSELL2|52=20240625-23:48:29.000|56=FIXBUY2|98=0|108=30|141=Y|10=131|
8=FIX.4.4|9=94|35=A|34=1|49=pedroserrano2@gmail_com|52=20240625-23:48:31.000|56=FIXSIMDEMO|98=0|108=30|141=Y|10=077|
8=FIX.4.4|9=76|35=A|34=1|49=FIXSELL2|52=20240625-23:48:31.000|56=FIXBUY2|98=0|108=30|141=Y|10=124|
8=FIX.4.4|9=94|35=A|34=1|49=pedroserrano2@gmail_com|52=20240625-23:48:33.000|56=FIXSIMDEMO|98=0|108=30|141=Y|10=079|
8=FIX.4.4|9=76|35=A|34=1|49=FIXSELL2|52=20240625-23:48:33.000|56=FIXBUY2|98=0|108=30|141=Y|10=126|
8=FIX.4.4|9=94|35=A|34=1|49=pedroserrano2@gmail_com|52=20240625-23:48:35.000|56=FIXSIMDEMO|98=0|108=30|141=Y|10=081|
8=FIX.4.4|9=94|35=A|34=1|49=pedroserrano2@gmail_com|52=20240625-23:48:37.000|56=FIXSIMDEMO|98=0|108=30|141=Y|10=083|
8=FIX.4.4|9=94|35=A|34=1|49=pedroserrano2@gmail_com|52=20240625-23:48:39.000|56=FIXSIMDEMO|98=0|108=30|141=Y|10=085|
8=FIX.4.4|9=94|35=A|34=1|49=pedroserrano2@gmail_com|52=20240626-00:17:05.000|56=FIXSIMDEMO|98=0|108=30|141=Y|10=070|
8=FIX.4.4|9=76|35=A|34=1|49=FIXSELL2|52=20240626-00:17:05.000|56=FIXBUY2|98=0|108=30|141=Y|10=117|
8=FIX.4.4|9=94|35=A|34=1|49=pedroserrano2@gmail_com|52=20240626-00:17:08.000|56=FIXSIMDEMO|98=0|108=30|141=Y|10=073|
8=FIX.4.4|9=76|35=A|34=1|49=FIXSELL2|52=20240626-00:17:08.000|56=FIXBUY2|98=0|108=30|141=Y|10=120|
8=FIX.4.4|9=76|35=A|34=1|49=FIXSELL2|52=20240626-00:17:10.000|56=FIXBUY2|98=0|108=30|141=Y|10=113|
8=FIX.4.4|9=94|35=A|34=1|49=pedroserrano2@gmail_com|52=20240626-00:17:10.000|56=FIXSIMDEMO|98=0|108=30|141=Y|10=066|
8=FIX.4.4|9=76|35=A|34=1|49=FIXSELL2|52=20240626-00:18:49.000|56=FIXBUY2|98=0|108=30|141=Y|10=126|
8=FIX.4.4|9=94|35=A|34=1|49=pedroserrano2@gmail_com|52=20240626-00:18:49.000|56=FIXSIMDEMO|98=0|108=30|141=Y|10=079|
8=FIX.4.4|9=76|35=A|34=1|49=FIXSELL2|52=20240626-00:18:51.000|56=FIXBUY2|98=0|108=30|141=Y|10=119|
8=FIX.4.4|9=94|35=A|34=1|49=pedroserrano2@gmail_com|52=20240626-00:18:51.000|56=FIXSIMDEMO|98=0|108=30|141=Y|10=072|
8=FIX.4.4|9=94|35=A|34=1|49=pedroserrano2@gmail_com|52=20240626-00:19:03.000|56=FIXSIMDEMO|98=0|108=30|141=Y|10=070|
8=FIX.4.4|9=76|35=A|34=1|49=FIXSELL2|52=20240626-00:19:03.000|56=FIXBUY2|98=0|108=30|141=Y|10=117|
8=FIX.4.4|9=76|35=A|34=1|49=FIXSELL2|52=20240626-00:19:05.000|56=FIXBUY2|98=0|108=30|141=Y|10=119|
8=FIX.4.4|9=94|35=A|34=1|49=pedroserrano2@gmail_com|52=20240626-00:19:05.000|56=FIXSIMDEMO|98=0|108=30|141=Y|10=072|
8=FIX.4.4|9=76|35=A|34=1|49=FIXSELL2|52=20240626-00:19:07.000|56=FIXBUY2|98=0|108=30|141=Y|10=121|
8=FIX.4.4|9=94|35=A|34=1|49=pedroserrano2@gmail_com|52=20240626-00:19:07.000|56=FIXSIMDEMO|98=0|108=30|141=Y|10=074|
8=FIX.4.4|9=94|35=A|34=1|49=pedroserrano2@gmail_com|52=20240626-00:19:09.000|56=FIXSIMDEMO|98=0|108=30|141=Y|10=076|
8=FIX.4.4|9=76|35=A|34=1|49=FIXSELL2|52=20240626-00:19:09.000|56=FIXBUY2|98=0|108=30|141=Y|10=123|
8=FIX.4.4|9=76|35=A|34=1|49=FIXSELL2|52=20240626-00:19:11.000|56=FIXBUY2|98=0|108=30|141=Y|10=116|
8=FIX.4.4|9=94|35=A|34=1|49=pedroserrano2@gmail_com|52=20240626-00:19:11.000|56=FIXSIMDEMO|98=0|108=30|141=Y|10=069|
8=FIX.4.4|9=94|35=A|34=1|49=pedroserrano2@gmail_com|52=20240626-00:19:13.000|56=FIXSIMDEMO|98=0|108=30|141=Y|10=071|
8=FIX.4.4|9=76|35=A|34=1|49=FIXSELL2|52=20240626-00:19:13.000|56=FIXBUY2|98=0|108=30|141=Y|10=118|
8=FIX.4.4|9=94|35=A|34=1|49=pedroserrano2@gmail_com|52=20240626-00:25:46.000|56=FIXSIMDEMO|98=0|108=30|141=Y|10=074|
8=FIX.4.4|9=76|35=A|34=1|49=FIXSELL2|52=20240626-00:25:46.000|56=FIXBUY2|98=0|108=30|141=Y|10=121|
8=FIX.4.4|9=76|35=A|34=1|49=FIXSELL2|52=20240626-00:25:48.000|56=FIXBUY2|98=0|108=30|141=Y|10=123|
8=FIX.4.4|9=94|35=A|34=1|49=pedroserrano2@gmail_com|52=20240626-00:25:48.000|56=FIXSIMDEMO|98=0|108=30|141=Y|10=076|
8=FIX.4.4|9=94|35=A|34=1|49=pedroserrano2@gmail_com|52=20240626-00:25:50.000|56=FIXSIMDEMO|98=0|108=30|141=Y|10=069|
8=FIX.4.4|9=76|35=A|34=1|49=FIXSELL2|52=20240626-00:25:50.000|56=FIXBUY2|98=0|108=30|141=Y|10=116|
8=FIX.4.4|9=76|35=A|34=1|49=FIXSELL2|52=20240626-00:43:35.000|56=FIXBUY2|98=0|108=30|141=Y|10=119|
8=FIX.4.4|9=94|35=A|34=1|49=pedroserrano2@gmail_com|52=20240626-00:43:35.000|56=FIXSIMDEMO|98=0|108=30|141=Y|10=072|
8=FIX.4.4|9=94|35=A|34=1|49=pedroserrano2@gmail_com|52=20240626-00:43:37.000|56=FIXSIMDEMO|98=0|108=30|141=Y|10=074|
8=FIX.4.4|9=76|35=A|34=1|49=FIXSELL2|52=20240626-00:43:37.000|56=FIXBUY2|98=0|108=30|141=Y|10=121|
8=FIX.4.4|9=94|35=A|34=1|49=pedroserrano2@gmail_com|52=20240626-00:43:39.000|56=FIXSIMDEMO|98=0|108=30|141=Y|10=076|
8=FIX.4.4|9=76|35=A|34=1|49=FIXSELL2|52=20240626-00:43:39.000|56=FIXBUY2|98=0|108=30|141=Y|10=123|
8=FIX.4.4|9=76|35=A|34=1|49=FIXSELL2|52=20240626-00:43:41.000|56=FIXBUY2|98=0|108=30|141=Y|10=116|
8=FIX.4.4|9=94|35=A|34=1|49=pedroserrano2@gmail_com|52=20240626-00:43:41.000|56=FIXSIMDEMO|98=0|108=30|141=Y|10=069|
8=FIX.4.4|9=76|35=A|34=1|49=FIXSELL2|52=20240626-00:52:50.000|56=FIXBUY2|98=0|108=30|141=Y|10=116|
8=FIX.4.4|9=94|35=A|34=1|49=pedroserrano2@gmail_com|52=20240626-00:52:50.000|56=FIXSIMDEMO|98=0|108=30|141=Y|10=069|
8=FIX.4.4|9=94|35=A|34=1|49=pedroserrano2@gmail_com|52=20240626-00:55:39.000|56=FIXSIMDEMO|98=0|108=30|141=Y|10=079|
8=FIX.4.4|9=76|35=A|34=1|49=FIXSELL2|52=20240626-00:55:39.000|56=FIXBUY2|98=0|108=30|141=Y|10=126|
8=FIX.4.4|9=76|35=A|34=1|49=FIXSELL2|52=20240626-00:55:41.000|56=FIXBUY2|98=0|108=30|141=Y|10=119|
8=FIX.4.4|9=94|35=A|34=1|49=pedroserrano2@gmail_com|52=20240626-00:55:41.000|56=FIXSIMDEMO|98=0|108=30|141=Y|10=072|
8=FIX.4.4|9=94|35=A|34=1|49=pedroserrano2@gmail_com|52=20240626-00:55:44.000|56=FIXSIMDEMO|98=0|108=30|141=Y|10=075|
8=FIX.4.4|9=76|35=A|34=1|49=FIXSELL2|52=20240626-00:55:44.000|56=FIXBUY2|98=0|108=30|141=Y|10=122|
8=FIX.4.4|9=94|35=A|34=1|49=pedroserrano2@gmail_com|52=20240626-00:55:46.000|56=FIXSIMDEMO|98=0|108=30|141=Y|10=077|
8=FIX.4.4|9=76|35=A|34=1|49=FIXSELL2|52=20240626-00:55:46.000|56=FIXBUY2|98=0|108=30|141=Y|10=124|
8=FIX.4.4|9=76|35=A|34=1|49=FIXSELL2|52=20240626-00:56:18.000|56=FIXBUY2|98=0|108=30|141=Y|10=124|
8=FIX.4.4|9=94|35=A|34=1|49=pedroserrano2@gmail_com|52=20240626-00:56:18.000|56=FIXSIMDEMO|98=0|108=30|141=Y|10=077|
8=FIX.4.4|9=94|35=A|34=1|49=pedroserrano2@gmail_com|52=20240626-00:56:20.000|56=FIXSIMDEMO|98=0|108=30|141=Y|10=070|8=FIX.4.4|9=76|35=A|34=1|49=FIXSELL2|52=20240626-00:56:20.000|56=FIXBUY2|98=0|108=30|141=Y|10=117|

8=FIX.4.4|9=76|35=A|34=1|49=FIXSELL2|52=20240626-00:56:22.000|56=FIXBUY2|98=0|108=30|141=Y|10=119|
8=FIX.4.4|9=94|35=A|34=1|49=pedroserrano2@gmail_com|52=20240626-00:56:22.000|56=FIXSIMDEMO|98=0|108=30|141=Y|10=072|
8=FIX.4.4|9=76|35=A|34=1|49=FIXSELL2|52=20240626-00:56:24.000|56=FIXBUY2|98=0|108=30|141=Y|10=121|
8=FIX.4.4|9=94|35=A|34=1|49=pedroserrano2@gmail_com|52=20240626-00:56:24.000|56=FIXSIMDEMO|98=0|108=30|141=Y|10=074|
8=FIX.4.4|9=94|35=A|34=1|49=pedroserrano2@gmail_com|52=20240626-00:56:26.000|56=FIXSIMDEMO|98=0|108=30|141=Y|10=076|
8=FIX.4.4|9=76|35=A|34=1|49=FIXSELL2|52=20240626-00:56:26.000|56=FIXBUY2|98=0|108=30|141=Y|10=123|
8=FIX.4.4|9=76|35=A|34=1|49=FIXSELL2|52=20240626-00:56:28.000|56=FIXBUY2|98=0|108=30|141=Y|10=125|
8=FIX.4.4|9=94|35=A|34=1|49=pedroserrano2@gmail_com|52=20240626-00:56:28.000|56=FIXSIMDEMO|98=0|108=30|141=Y|10=078|
8=FIX.4.4|9=94|35=A|34=1|49=pedroserrano2@gmail_com|52=20240626-00:56:30.000|56=FIXSIMDEMO|98=0|108=30|141=Y|10=071|
8=FIX.4.4|9=76|35=A|34=1|49=FIXSELL2|52=20240626-00:56:30.000|56=FIXBUY2|98=0|108=30|141=Y|10=118|
8=FIX.4.4|9=76|35=A|34=1|49=FIXSELL2|52=20240626-01:01:48.000|56=FIXBUY2|98=0|108=30|141=Y|10=118|
8=FIX.4.4|9=94|35=A|34=1|49=pedroserrano2@gmail_com|52=20240626-01:01:48.000|56=FIXSIMDEMO|98=0|108=30|141=Y|10=071|
8=FIX.4.4|9=94|35=A|34=1|49=pedroserrano2@gmail_com|52=20240626-01:01:50.000|56=FIXSIMDEMO|98=0|108=30|141=Y|10=064|
8=FIX.4.4|9=76|35=A|34=1|49=FIXSELL2|52=20240626-01:01:50.000|56=FIXBUY2|98=0|108=30|141=Y|10=111|
8=FIX.4.4|9=94|35=A|34=1|49=pedroserrano2@gmail_com|52=20240626-01:01:52.000|56=FIXSIMDEMO|98=0|108=30|141=Y|10=066|
8=FIX.4.4|9=76|35=A|34=1|49=FIXSELL2|52=20240626-01:01:52.000|56=FIXBUY2|98=0|108=30|141=Y|10=113|
8=FIX.4.4|9=76|35=A|34=1|49=FIXSELL2|52=20240626-01:01:54.000|56=FIXBUY2|98=0|108=30|141=Y|10=115|
8=FIX.4.4|9=94|35=A|34=1|49=pedroserrano2@gmail_com|52=20240626-01:01:54.000|56=FIXSIMDEMO|98=0|108=30|141=Y|10=068|
8=FIX.4.4|9=76|35=A|34=1|49=FIXSELL2|52=20240626-01:01:56.000|56=FIXBUY2|98=0|108=30|141=Y|10=117|
8=FIX.4.4|9=94|35=A|34=1|49=pedroserrano2@gmail_com|52=20240626-01:01:56.000|56=FIXSIMDEMO|98=0|108=30|141=Y|10=070|
8=FIX.4.4|9=94|35=A|34=1|49=pedroserrano2@gmail_com|52=20240626-01:01:58.000|56=FIXSIMDEMO|98=0|108=30|141=Y|10=072|
8=FIX.4.4|9=76|35=A|34=1|49=FIXSELL2|52=20240626-01:01:58.000|56=FIXBUY2|98=0|108=30|141=Y|10=119|
8=FIX.4.4|9=94|35=A|34=1|49=pedroserrano2@gmail_com|52=20240626-01:02:00.000|56=FIXSIMDEMO|98=0|108=30|141=Y|10=060|
8=FIX.4.4|9=76|35=A|34=1|49=FIXSELL2|52=20240626-01:02:00.000|56=FIXBUY2|98=0|108=30|141=Y|10=107|
8=FIX.4.4|9=76|35=A|34=1|49=FIXSELL2|52=20240626-01:02:29.000|56=FIXBUY2|98=0|108=30|141=Y|10=118|
8=FIX.4.4|9=94|35=A|34=1|49=pedroserrano2@gmail_com|52=20240626-01:02:29.000|56=FIXSIMDEMO|98=0|108=30|141=Y|10=071|
8=FIX.4.4|9=76|35=A|34=1|49=FIXSELL2|52=20240626-01:02:50.000|56=FIXBUY2|98=0|108=30|141=Y|10=112|
8=FIX.4.4|9=94|35=A|34=1|49=pedroserrano2@gmail_com|52=20240626-01:02:50.000|56=FIXSIMDEMO|98=0|108=30|141=Y|10=065|
8=FIX.4.4|9=94|35=A|34=1|49=pedroserrano2@gmail_com|52=20240626-01:02:53.000|56=FIXSIMDEMO|98=0|108=30|141=Y|10=068|
8=FIX.4.4|9=76|35=A|34=1|49=FIXSELL2|52=20240626-01:02:53.000|56=FIXBUY2|98=0|108=30|141=Y|10=115|
